:020000040800F2
:10000000E0080020350200083D400008C139000822
:10001000F93F00084B1C00081147000800000000D1
:100020000000000000000000000000007541000812
:10003000E91C0008000000003F400008774100086C
:100040004F0200084F0200084F0200084F0200084C
:100050004F0200084F0200084F0200084F0200083C
:100060004F0200084F0200084F0200084F0200082C
:100070004F0200084F0200084F0200084F0200081C
:100080004F0200084F0200084F0200084F0200080C
:100090004F0200084F0200084F0200084F020008FC
:1000A0004F0200084F0200084F0200084F020008EC
:1000B000D54100084F0200084F0200084F02000817
:1000C0004F0200084F0200084F0200084F020008CC
:1000D0004F020008054700084F0200084F020008C1
:1000E0004F0200084F0200084F02000800F002F81B
:1000F00000F090F80AA090E8000C82448344AAF132
:100100000107DA4501D100F085F8AFF2090EBAE82F
:100110000F0013F0010F18BFFB1A43F0010318473B
:10012000E85A0000085B0000103A24BF78C878C184
:10013000FAD8520724BF30C830C144BF04680C60ED
:10014000704700000023002400250026103A28BF35
:1001500078C1FBD8520728BF30C148BF0B60704739
:100160006E2900F0DD81702900F02783662905F0F3
:100170004484652905F04184672905F03E8461299E
:1001800005F03D8403681B0A28BF41F080016929FE
:1001900000F08A81642900F08781752900F084814C
:1001A0006F2900F0B482782900F0F382E92900F089
:1001B0004F82E42900F04C82F52900F04982EF29B2
:1001C00000F0B182F82900F0F2820368DB0928BF51
:1001D00041F08001632900F0F587732900F0FA8768
:1001E000E32901F00580F32901F00A80002070471F
:1001F0001FB501F057F804000020002104F0ACFD09
:10020000401C60600020002104F090FDE0601FBDF4
:1002100010B510BD01F018F81146FFF7E9FF04F022
:10022000FBFB01F0F5F803B4FFF7F2FF03BC01F0AC
:100230003DF900000948804709480047FEE7FEE70E
:10024000FEE7FEE7FEE7FEE7FEE7FEE7FEE7FEE786
:1002500004480549054A064B70470000D341000891
:10026000ED000008E0020020E0080020E00400208B
:10027000E00400207CB51D4616460C00009001D01D
:100280002044401E074B7B442A4669460190304675
:1002900000F05FF905461CB10020694600F06CF9DA
:1002A00028467CBDF902000010B5431C02E010F89E
:1002B000011B71B18107FAD14FF0013202C88C1ACB
:1002C0008C4314EAC211F9D0C01A0A0603D0C01E2A
:1002D00010BDC01A10BD0A0401D0801E10BD090255
:1002E000FCD0401E10BD10B5203AC0F00B80B1E824
:1002F0001850203AA0E81850B1E81850A0E818505B
:10030000BFF4F5AF5FEA027C24BFB1E81850A0E863
:10031000185044BF18C918C0BDE810405FEA827C7D
:1003200024BF51F8043B40F8043B08BF7047D20794
:1003300028BF31F8023B48BF11F8012B28BF20F835
:10034000023B48BF00F8012B70474FF00002042920
:10035000C0F0128010F0030C00F01B80CCF1040CF4
:10036000BCF1020F18BF00F8012BA8BF20F8022B28
:10037000A1EB0C0100F00DB85FEAC17C24BF00F8CE
:10038000012B00F8012B48BF00F8012B70474FF0FC
:10039000000200B5134694469646203922BFA0E8D5
:1003A0000C50A0E80C50B1F12001BFF4F7AF0907E1
:1003B00028BFA0E80C5048BF0CC05DF804EB8900D2
:1003C00028BF40F8042B08BF704748BF20F8022B15
:1003D00011F0804F18BF00F8012B7047704770472D
:1003E000704770B5044685690068C10601D530269E
:1003F00000E02026C00707D070BDD4E901213046B7
:100400009047206A401C20626D1EF6D570BD70B505
:10041000044685690078C00707D170BDD4E9012181
:1004200020209047206A401C20626D1EF6D570BDCA
:1004300009684A0501D540B27047C905FCD500B22C
:10044000704709684A0501D5C0B27047C905FCD597
:1004500080B2704770B50C460546012A05D0287851
:10046000800600D5EA69002302E0012305E05B1C59
:10047000934202D2E05C0028F9D1A869E618C01ABC
:10048000A861286A184428622846FFF7AAFF04E0FA
:10049000D5E9012114F8010B9047B442F8D328465E
:1004A000FFF7B5FF70BD00002DE9F04106460024BE
:1004B00010687529314616A510D0FFF7B9FF00283E
:1004C00002DA404213A507E031688A0701D512A578
:1004D00002E0490704D511A5012401E0FFF7B1FFAF
:1004E00000210A2206F1240709E0B0FBF2FCB0FB70
:1004F000F2F302FB1C00303078541846491C0028E7
:10050000F3D123462A463046BDE8F04100F069BAEF
:10051000000000002D0000002B0000002000000063
:1005200011680268006A530501D508700AE0D30516
:1005300001D5088006E0130603D5C217C1E9000201
:1005400000E008600120704701694A1C02610878D8
:10055000704700B58FB0CDE9013100210591054903
:100560007944CDE903101146684600F031F90FB027
:1005700000BD0000E5FFFFFF0A6802F8010B0A60FA
:100580007047D1E900239A4202D2531C0B601070CD
:10059000704700002DE9FF5F15468A460446DFF8E4
:1005A000AC80F8440027D8E900103E46CDE90010A1
:1005B00010E03AF816106A4602A800F025FE411C29
:1005C00007D02178890603D5E269391891420DD800
:1005D0000744761C2078800602D5E069B84205DD24
:1005E000AE42E6DB3AF816000028E2D1A069C01B53
:1005F000A0612046FFF7F5FED8E90010CDE9001014
:10060000002017E03AF818106A4602A800F0FCFD36
:10061000B0F1FF3F81460BD000250DF1080B05E03E
:10062000D4E901211BF8050090476D1C4D45F7D317
:1006300008F10100B0428046E4DB206A38442062C1
:100640002046FFF7E4FEBDE8FF9F0000665500006E
:100650002DE9F0418046D21D22F007020025D2E9A3
:100660000002F52915A614D0011E72F1000106DA68
:100670000023D0EB030063EB020211A608E0D8F8D8
:1006800000108B0701D50FA602E0490701D50EA681
:1006900001251146002408F1240704E000F05CF96C
:1006A00030323A55641C50EA0102F7D12B463246EB
:1006B00021464046BDE8F04100F093B9000000003B
:1006C0002D0000002B0000002000000030B40021AD
:1006D00000F1240408E002F00705D208303542EAB0
:1006E0004372DB086554491C52EA0305F3D10468E0
:1006F000002310A2250707D5A40600D421B1C469A0
:1007000001230DA2641EC46130BC00F06AB910B5AB
:10071000044621461068FFF794FE02462046BDE8D5
:1007200010400023D2E7D21D22F00701D1E90023B7
:10073000CCE700000000000030000000F0B40D46DF
:100740000188090502D5214C7C4402E01F4C7C4401
:100750000E34002100F1240608E002F00F07120910
:10076000E75D42EA03721B097754491C52EA03070A
:10077000F3D102780023120704D5702D06D009B1F9
:10078000022311342246F0BC00F02BB901231034AF
:10079000F8E770B504460D4621461068FFF751FE94
:1007A000024629462046BDE870400023C6E7D21D18
:1007B00022F00703D3E90023C0E70368126843F07F
:1007C000200303600823C3610023B7E7C853000078
:1007D0002DE9F05F894604464FF0000ADFF874B156
:1007E000FB44C0F820A02046E1688847002874D068
:1007F000252806D0D4E901219047206A401C2062B8
:10080000F1E700265F462046E16888472028054634
:1008100007DB312D05D2781910F8200C08B10643FA
:10082000F1E7B00701D526F00406C4F81CA00027A4
:10083000C4F818A02A2D09D0284603F08EFF38B33B
:1008400004EB8708303DC8F8185019E059F8041B2C
:10085000204604EB87029161E1688847012F054635
:1008600018D1E069002820DA26F020061DE0D8F82B
:10087000180000EB800005EB40003038C8F8180085
:100880002046E1688847054603F067FF0028EED15F
:10089000012F0AD02E2D08D12046E16888477F1C01
:1008A0000546022F46F02006C4DBA069002803DAC3
:1008B000404246F00106A061F00701D026F0100684
:1008C0006C2D0BD0682D09D04C2D39D06A2D35D028
:1008D000742D35D07A2D33D016E038E0E1682F46FC
:1008E00020468847B842054609D16C2F26D04FF4E0
:1008F0008060E168064320468847054604E06C2F87
:100900001AD04FF4807006430DB3A5F141001928A9
:1009100002D8203546F400664A462946204626601D
:100920004E46FFF71DFC80B101280BD0F61D26F0C6
:10093000070000F1080956E74020E4E78020D8E7E7
:100940000020D6E706F104094DE7284652E7206A61
:10095000BDE8F09F5853000030B5B0F10A024FEAED
:10096000900E71F100034EEA817EB0EB0E0061EB58
:1009700091014FEA101E4EEA017E10EB0E0041EB92
:1009800011114FEA102E4EEA016E10EB0E0041EBF2
:1009900011214FEA104E4EEA014E10EB0E0041EBD2
:1009A0001141401841F100014FEAD00040EA417086
:1009B0004FEAD10110EB80054FEA810444EA9074BC
:1009C00044EB01046D1944EB0404521BA3414FF0A6
:1009D000000348BF0A3200D530BD401C41F1000180
:1009E00030BD2DE9F0470D4699469246044600F188
:1009F00024080168880604D5E06921F0100121600F
:100A000000E00120A84201DD471B00E00027A169AA
:100A10007A1902EB0900081AA0612078C00602D4F6
:100A20002046FFF7DEFC002608E0D4E901211AF891
:100A300006009047206A401C761C20624E45F4DB7D
:100A40002078C0060AD52046FFF7CBFC06E0D4E9A3
:100A5000012130209047206A401C2062381EA7F1F7
:100A60000107F4DC07E0D4E9012118F805009047FC
:100A7000206A401C2062281EA5F10105F3DC2046F7
:100A8000FFF7C5FC2078000602D50220BDE8F087FC
:100A90000120FBE770472DE9FF4F0C461E464FF043
:100AA000FF378BB0D2E90001DDF860800A908A46FA
:100AB000C1F30A5505B93D46002108464FF0000034
:100AC000BAF1000F00F4400005DA00EB80004FF4AB
:100AD000400101EA50004FEA9059B9F1010F00DDE1
:100AE000B9460A9850EA4A000ED044F61050A5F2D2
:100AF000FF3545432F14B8F1000F1ED07542291E53
:100B00001EDDC9F100021CE0B8F1010F4FF000003A
:100B100001D0302103E0F24305E02154401CB042F3
:100B2000FBDB30460022002121540B99C1F80880DC
:100B3000C1E900200FB0BDE8F08FBD1B6D1CDEE7E2
:100B40004A4600DA694206A800F0F0FB06AB93E8DB
:100B5000070003AB83E8070050460A9900F0ADFC9C
:100B60008DE80700A0F500501F3800900398002D75
:100B70000ADD42F21F014A460844002303A90390FC
:100B8000684600F016FF09E0A0F500504A461F38FD
:100B9000002303A90390684600F020FF8DE80700BA
:100BA0000004000C03D04FF0FF30410800E0104675
:100BB000B8F1000F03D00022009215461EE0751E0A
:100BC00005D4FFF7C9FE303262556D1EF9D5B34624
:100BD0000122084302D000227F1C04E02078302844
:100BE00001D100227F1E002A099784D01DE0112D1B
:100BF00007DAFFF7B1FE303262556D1C50EA010290
:100C0000F5D1084302D00098C8B10EE00021681E5B
:100C100005E0235C625C63542254401E491C8142FF
:100C2000F7DBAB46A81B401E0990002004F80B0020
:100C30000B98099AC0F80880C0E9002B7AE71126C2
:100C40004FF0000857E72DE9F04F88460446D21DC3
:100C500022F0070191B0D1E90001CDE90A0103F0CA
:100C600058FD02460B98C00F01D02D2007E02068E8
:100C7000810701D52B2002E0202101EAC000032AD0
:100C8000099001D0072A05DB03464146204600F0C3
:100C90000DFB0BE12078800601D5E06900E006201D
:100CA000B8F1650F814606D0B8F1660F18D0B8F1DB
:100CB000670F70D131E00020B9F1110F009001DB16
:100CC000112301E009F101030AAA01A90CA8FFF709
:100CD000E2FEDDE90C70002609F10105834647E0DC
:100CE00001204B4600904FF000470AAA01A90CA82A
:100CF000FFF7D1FEDDE90DB00C995D46002610B975
:100D000009F101000D18B9EB050003D4C0F1FF365D
:100D100009F10105A5EB09002BE0B9F1010F01DA9A
:100D20004FF001090020B9F1110F0090484601DD94
:100D3000112300E003460AAA01A90CA8FFF7ABFEA5
:100D4000DDE90C704D4600268346207800070AD462
:100D5000AB4500DA5D4601A8012D04DD411911F80B
:100D6000011C302907D04F4502DA17F1040F04DACD
:100D7000012082460FE06D1EEEE7002F02DCED1B26
:100D80003E4403E0781CA84200DD7D1CB81B00F146
:100D9000010A4FF000472078000703D4AA4501DB81
:100DA0004FF0FF3A0021B7F1004F0DF143088DF8E5
:100DB000431024D002202B23002F01DA7F422D2361
:100DC0000A21021EA0F1010000DC5FB197FBF1FCDB
:100DD00097FBF1F201FB1C7C17460CF1300C08F874
:100DE00001CDEEE7A8F1010003702188090501D5C6
:100DF000452100E06521A0F1010800F8011C0998D7
:100E00000FA9A1EB0807FF1D00B10120411901EB5B
:100E1000EA70A1693844081A401EA0612078C00613
:100E200002D42046FFF7DDFA099828B1D4E9012160
:100E30009047206A401C20622078C00622D52046B8
:100E4000FFF7CFFA1EE0002E04DBB34502DD01A858
:100E5000805D00E03020D4E901219047206A401CE9
:100E60002062761CAAF101005FEA000A0AD100F0B4
:100E700019FAC0680168405CD4E901219047206AF2
:100E8000401C2062281EA5F10105DCDC07E0D4E946
:100E9000012118F8010B9047206A401C2062381E7F
:100EA000A7F10107F3DC2046FFF7B1FA032011B0E8
:100EB00041E600002DE9F04F04460D46D21D22F018
:100EC000070089B0D0E900974846394603F021FC75
:100ED0000246F80F01D02D2307E02068810701D5D5
:100EE0002B2302E0202101EAC0038DF820300BB152
:100EF000012000E00020032A824601D0072A04DBFB
:100F00002946204600F0D2F93FE12078800601D43E
:100F10000D2500E0E569C7F30A560D2D49DA0021D9
:100F20004FEA175B08464FF00000002F00F4400026
:100F300007DA00EB80004FF4400100EBD07001EACB
:100F400060008115012901DD4FF0FF3100224FEAD9
:100F5000850CBCF1180F06D31346ACF118004FF006
:100F60008052C24003E04FF4801323FA0CF30CF1DB
:100F70000C0CBCF1200F04D3ACF1200C09FA0CF0DE
:100F800001E007FA0CF000294FF0004801DD18B924
:100F90000FE00ED140450CD319EB02095F4121B996
:100FA000404502D19F4329EA0209BBEB175F00D0FD
:100FB000761C2088000502D57B48784402E07A48F8
:100FC0007844193808AA302302F80A30037C0AF161
:100FD0000101002E0AF1020A53546A4602DC4FF066
:100FE000300101E04FF031014FF001088DF80010A1
:100FF00002D0A6F2FF3603E059EA470100D06B4E5B
:10100000002D02DC2178090704D54FF002082E21BB
:101010008DF80110C44600210BE0C7F303433F01E4
:10102000C35C491C6D1E02F80830052908F101084F
:1010300001DA002DF1DC00210CE000EB1973491CF2
:101040001B786D1E082902F808304FEA091908F1CB
:10105000010801DA002DF0DC21688B0602D516E0CC
:10106000A8F10108E04505DD02EB080313F8013C97
:10107000302BF5D0B8F1000F09DD02EB080313F8AF
:10108000013C2E2B03D1090701D4A8F10108002D42
:1010900005DD3E2102F808106D1E08F10108407CB4
:1010A000002E02F8080008F1010804DA2D2076422B
:1010B00002F8080002E02B2002F808000A214FF491
:1010C0007A70864208F101080BDB96FBF0F33033AF
:1010D00002F8083096FBF0F308F1010800FB1366F4
:1010E00001E0642E0CDB642096FBF0F3303302F851
:1010F000083096FBF0F308F1010800FB136601E0ED
:101100000A2E06DB96FBF1F0303002F8080008F1F9
:10111000010896FBF1F001FB1060303002F8080086
:10112000A16908F1010808EB050202EB0A00081AA0
:10113000A0612078C00602D42046FFF752F9216A48
:1011400008AE01EB0A00206204E0D4E9012116F8A0
:10115000010B9047BAF1010AF7D22078C00602D5F8
:101160002046FFF73EF96E4609E016F8010B3E28CF
:101170000FD0D4E901219047206A401C2062B8F1C9
:101180000108F2D22046FFF742F909B00320BDE87A
:10119000F08F206A2844206203E0D4E90121302046
:1011A00090476D1EEBD3F8E7A24B000002FCFFFF57
:1011B00010B5436913B1AFF3008001E0FFF74AF9BE
:1011C000012010BD127800F124010A7000224A703B
:1011D0000122EDE711684FF0FF32E9E710B54369EE
:1011E00013B1AFF3008001E0FFF7D4F9012010BD87
:1011F000128800F1240182840022C2840122EDE7DA
:1012000011684FF0FF32E9E770B516460C46054607
:1012100000F040F8036893F80101012806D0FF2C84
:101220000FD8185D68B101202C7070BDD3F807018C
:101230003246214603F2071303442846BDE87040B6
:1012400018474FF0FF3070BD754600F0EBF8AE4622
:1012500005006946534620F00700854618B020B5C2
:10126000FEF7F6FFBDE820404FF000064FF0000704
:101270004FF000084FF0000B21F00701AC46ACE83E
:10128000C009ACE8C009ACE8C009ACE8C0098D46AB
:101290007047000010B500F005F8001D10BD00BF3C
:1012A000B93A0000004870479C0200202DE9F04147
:1012B0001F46044603260168072A01F4006004DB88
:1012C00008B116A505E016A503E008B115A500E0D4
:1012D00015A521F010002060A069C01EA0610FB10B
:1012E000401EA0612046FFF77CF84FB1D4E90121F0
:1012F00038469047206A401C2062C01C206206E0ED
:10130000206AFAE7D4E9012115F8010B9047761E0F
:10131000F8D22046FFF77BF8BDE8F0814E414E0041
:101320006E616E00494E4600696E66002DE9F04719
:10133000814616468AB0354878440DC88DE80D00C0
:1013400032487844801C03AC0DC884E80D0041F697
:101350009B300844372190FBF1F290FBF1F5A5F1A9
:10136000800501FB12041B3C02D56442012000E011
:101370000020DFF898A080460027FA44AAF1BE0AB0
:101380000EE0E0070AD03246684607EB470101232A
:101390000AEB810100F022FB8DE8070064107F1C3E
:1013A000002CEED1194F7F44AE3F19E0E80715D06D
:1013B00007EB04100DF1180A90E80E008AE80E0001
:1013C000C068F04201D1981908903246012306A95D
:1013D00003A800F003FB03AB83E807006D10641C57
:1013E000002DE3D14FF0010332466946B8F1000FFA
:1013F00003A802D000F0DDFA01E000F0EFFAC9E93D
:101400000001C9F808200AB0BDE8F087B448000020
:1014100010B50446AFF300802046BDE81040FEF74B
:1014200002BF0000004870477C0200204FF0013CE2
:1014300050F8042B51F8043B9A4221D1A2EB0C0343
:10144000934313EACC1317D150F8042B51F8043B03
:101450009A4215D1A2EB0C03934313EACC130BD1A0
:1014600050F8042B51F8043B9A4209D1A2EB0C032B
:10147000934313EACC13DBD04FF00000704700BF5A
:10148000D01A01BAB1FA81F101F0180122FA01F083
:10149000CB40C1F12001DBB2C0B2C01A2CFA01F37B
:1014A000D11A914311EAC311E6D1704701491820BE
:1014B000ABBEFEE72600020070475FEA400C08BFA3
:1014C00091F0000F4FEA8C234FEAC12243EA5151B9
:1014D0004FEA1C5018BF00F5F0404FEA300018BF2B
:1014E00041F000415FEA6C5C00F02980BCF1FF3FF5
:1014F00008BF40F080407047130C06BF12044FF045
:10150000100C4FF0000C130E04BF12020CF1080C6B
:10151000130F04BF12010CF1040C930F04BF9200CF
:101520000CF1020CD30F04BF52000CF1010C114658
:101530004FF00002A0F11F00A0EB0C00704711F06B
:10154000004F08BF704731F000413FF4D5AF0B0C9E
:1015500006BF09044FF0100C4FF0000C0B0E04BF37
:1015600009020CF1080C0B0F04BF09010CF1040C6B
:101570008B0F04BF89000CF1020CCB0F04BF490094
:101580000CF1010CCCF12003A0EB0C0022FA03F3C8
:1015900002FA0CF241EA030100F10100704720F069
:1015A0007F4C80EA030023F07F47ACEB070303F591
:1015B0007C5300F0004003F1FF032DE980494FEA1E
:1015C000154B09B44FEA144325EA0B4E24EA0348AD
:1015D0000FF2042606EB132749083E785FEA320231
:1015E00003FB0667C7F5000707FB06F64FEA54370B
:1015F0004FEAD64606F1020607FB066CCCF1005C0A
:101600004FEA1C472CEA074C07FB06F40CFB06F5D7
:1016100004EB15464FEA961634BF00204FF0004009
:101620004FEAD13706FB07FC4FEA1C4C0CFB0BF7CB
:10163000D21B03FB0CF761EB07010CFB0EF7B0EBC1
:10164000074072EB17420CFB08F734BFA2EB0742CE
:10165000B2EB074261EB17414FEA0C444FEA9107A6
:1016600006FB07FC4FEA1C4C0CFB0BF7B0EBC7402A
:1016700072EB573203FB0CF734BFA2EBC742B2EB5D
:10168000C74261EB57310CFB0EF7B0EBC70072EBB2
:1016900057720CFB08F734BFA2EBC702B2EBC702CC
:1016A00061EB5771039F4FEA816141EA921104EBAC
:1016B000CC044FEAD1374FEA826206FB07FC42EACC
:1016C00090124FEA80604FEA1C4C0CFB0BF7D21BC8
:1016D00003FB0CF761EB07010CFB0EF7B0EB0740C7
:1016E00072EB17420CFB08F734BFA2EB0742B2EBD8
:1016F000074261EB17414FEA8C554FEA910704EB23
:101700009C2406FB07FC4FEA1C4C0CFB0BF7B0EBD0
:10171000C74072EB573203FB0CF734BFA2EBC74252
:10172000B2EBC74261EB57310CFB0EF7B0EBC700D1
:1017300072EB57720CFB08F734BFA2EBC702B2EB97
:10174000C70261EB577115EB4C254FEA816141EA05
:1017500092114FEA82624FEAD13742EA901206FBB9
:1017600007FC44F100044FEA80604FEA1C4C0CFB7C
:101770000BF7D21B03FB0CF761EB07010CFB0EF719
:10178000B0EB074072EB17420CFB08F734BFA2EB3B
:101790000742B2EB074261EB174115EB1C154FEA0C
:1017A000813141EA92414FEA823242EA90424FEA65
:1017B00080304FEA0C7644F1000448EA03434EEAD5
:1017C0000B484FF0000EB2EB080C71EB030724BF7F
:1017D000624639464EEB0E0E4FF0000B0018524198
:1017E00049414BEB0B0BB2EB080C71EB03077BF1A0
:1017F000000B24BF624639464EEB0E0E4FF0000B35
:101800000018524149414BEB0B0BB2EB080C71EB4A
:1018100003077BF1000B24BF624639464EEB0E0EE8
:1018200051EA020718BF46F0010616EB0E7655F195
:10183000000254F1000103D5BDE88901BDE800882C
:10184000BDE88901BDE80048B619524141EB0101EC
:10185000A3F10103704780807F7E7D7C7B7A79785D
:10186000777676757473727171706F6E6E6D6C6C65
:101870006B6A6A6968686766666564646363626107
:101880006160605F5F5E5E5D5D5C5C5B5B5A5A5988
:1018900059585857575656555555545453535252F4
:1018A0005251515050504F4F4F4E4E4D4D4D4C4C4C
:1018B0004C4B4B4B4A4A4A49494948484847474795
:1018C00047464646454545444444444343434342D2
:1018D000424242414141002B9C4630D477002BD0FC
:1018E0001CB54FEA370703B44FF010004FF010015A
:1018F000BAF1000F06D0BCF1000FDCBF40F00800C9
:1019000040F008014FF000000FBCBDE810400BF1A3
:10191000010BBBF1010F08BF5FEA170722BF12F1ED
:10192000010211F101014FF0004143F1000300F009
:10193000004043EA00007047F9D35708D0E746EA71
:10194000064613F1400F4FEA16461FDD13F1200F34
:10195000DFBF16430A46002120335B42BED0C3F1ED
:10196000200746EA064602FA07F74FEA164646EA15
:101970000706C3F1200722FA03F201FA07F721FA5A
:1019800003F14FF0000342EA0702A7E746EA020626
:1019900046EA06464FEA164646EA0106BCBF46EA54
:1019A0000646360C4FF000034FF000024FF00001E6
:1019B00094E72DE9804C9A46934670B491E838003C
:1019C00007C831EA400C48BF34EA430C03D5FFF79F
:1019D000E6FDFFF780FFF0BCBDE8008C2DE9804CF0
:1019E0009A46934670B491E8380007C810F0804FCB
:1019F00008BF13F0804F03D100F005F8FFF76BFF2D
:101A0000F0BCBDE8008C20F07F4780EA030023F0A3
:101A10007F4C07EB0C03A3F57C5300F00040A3F1CF
:101A2000FE0392F0000F00F0B38095F0000F00F07D
:101A300077802DE901494FEA11404FEA144621EA27
:101A4000004800FB06FC24EA064708FB06F607FBF5
:101A500008F800FB07F718EB06484CEB164C4FEA6A
:101A6000124B18EB07484FEA15464CEB174022EA99
:101A70000B4E0BFB06FC25EA06470EFB06F607FBA2
:101A80000EFE0BFB07F71EEB064E4CEB164C4FF011
:101A900000061EEB074E4CEB174B18EB0B0840F102
:101AA000000018EB0E0B58EB000840F100008F1AF5
:101AB0004FF000013CBFC943661B14BFB5EB040CDB
:101AC00000213CBFC943F61B4FEA17444EEA8E0E75
:101AD00027EA04454FEA1C4704FB07622CEA074C3F
:101AE00005FB07F70CFB05F604FB0CFC16EB0746A1
:101AF00042EB174216EB0C4642EB1C421BEB060670
:101B000058EB0202414146EA9E0601D5BDE8018933
:101B1000B619524141EB0101A3F10103BDE801896E
:101B20004FEA14454FEA114724EA054621EA074CDB
:101B300005FB07F406FB07F70CFB06F105FB0CFCA5
:101B400011EB074144EB17444FEA124711EB0C41EC
:101B500044EB1C4422EA074C05FB07F206FB07F79F
:101B60000CFB06F605FB0CFC16EB074642EB174296
:101B700016EB0C4642EB1C456A1854F1000148BFB5
:101B80007047B619524141EB0101A3F101037047BF
:101B900095F0000F37D04FEA11424FEA144721EA7F
:101BA000024624EA074C02FB07F106FB07F70CFB91
:101BB00006F402FB0CFC14EB074441EB17414FEA1F
:101BC000154714EB0C4441EB1C4125EA074C02FB82
:101BD00007F506FB07F70CFB06F602FB0CFC16EB01
:101BE000074645EB174516EB0C4645EB1C42121910
:101BF00051F1000148BF7047B619524141EB010154
:101C0000A3F1010370474FEA14454FEA114724EA54
:101C1000054621EA074C05FB07F106FB07F70CFB1D
:101C200006F24FF0000605FB0CFC12EB074241EBFD
:101C3000174112EB0C4251EB1C4148BF7047921800
:101C400041EB0101A3F101037047FEE770B50446C3
:101C5000C0F3031003F020FB6FF0030203F003FF57
:101C600003F090F80546C4F306262004124C13D561
:101C700029464FF07E5003F04BFE0546C6F17F002B
:101C800003F0D0FD294603F06BFDA06003F03CFD9E
:101C900002460B4609A00BE0304603F0DBFD294667
:101CA00003F05EFDA06003F02FFD02460B4609A085
:101CB00002F0A4F9A06870BD1800002074332E74DF
:101CC00078743D222D25302E3266A1E622FFFFFFDB
:101CD0000000000074332E7478743D2225302E32BB
:101CE00066A1E622FFFFFF00704772B6FEE710B55F
:101CF00090F821100022022905D00421816380F888
:101D00002020012010BD01680B6823F00E030B603A
:101D100001680B6823F001030B6090F84030C46B3E
:101D2000012101FA03F3636080F8211080F820207C
:101D3000104610BD10B590F821100024022903D0E0
:101D40000421816301243DE001680A6822F00E024B
:101D50000A6001680A6822F001020A601A4A0168F2
:101D6000914201D1012121E0174A1432914201D15F
:101D700010211BE0144A2832914201D1891515E047
:101D8000114A3C32914201D189140FE00E4A50327F
:101D9000914202D14FF4803108E00B4A6432914203
:101DA00002D14FF4801101E04FF08071064A083AE9
:101DB0005160012180F82110002180F82010416B32
:101DC00001B18847204610BD0800024070B50446A6
:101DD00000F004F90546601C02D004480078044471
:101DE00000F0FCF8401BA042FAD370BD08000020B0
:101DF0002DE9F84FDFF8B891002409F1040A0AF13F
:101E0000040B23460F270BF1040EC9E00125A54062
:101E10002A40AA427DD1674ED1F804C0ACEB060837
:101E2000B44532D014DCBCF1030F3AD009DCBCF16C
:101E3000000F2AD0BCF1010F1CD0BCF1020F31D130
:101E40001DE0BCF1110F17D0BCF1120F2AD119E01F
:101E5000B8F5881F19D006DCB8F5803F15D0B8F565
:101E6000801F1FD111E0B8F5001F0ED0B8F5041F78
:101E700018D10AE0CB6815E0CB681B1D12E0CB68D7
:101E800008330FE0CB680C330CE08B682BB1012BCF
:101E90004FF0080303D0456104E0042302E005612C
:101EA00000E00023FF2A01D8064601E000F1040605
:101EB0004FEA840501D9A5F12005D6F8008007FA7C
:101EC00005FC28EA0C0803FA05F548EA0508C6F8F7
:101ED00000804D68ED0062D5374DAE6946F00106D1
:101EE000AE61AD6924F0030605F001050095334DA0
:101EF00006EB050CDCF80850A607360F07FA06F8C3
:101F000025EA0805DFF8B880404503D14FF0000806
:101F100017E044E0DFF8AC80404502D14FF0010803
:101F20000FE0DFF8A480404502D14FF0020808E03E
:101F3000DFF89880404502D14FF0030801E04FF0F0
:101F4000040808FA06F848EA0508CCF808804D6845
:101F5000D9F80060ED034D4601D5164300E09643E5
:101F60002E604D68DAF80060AD03554601D5164382
:101F700000E096432E604D68DBF80060ED025D46A0
:101F800001D5164300E096432E604D68DEF80060F0
:101F9000AD02754601D5164300E096432E60641CE1
:101FA0000D682A46E5407FF431AFBDE8F88F0000A8
:101FB0000004014000001110001002400000014028
:101FC00000080140000C01400010014000140140D5
:101FD0000AB1016170470904FBE70000014880680D
:101FE0007047000008000020006C704770B50400C6
:101FF00025D094F83D00002520B984F83C502046B7
:1020000000F070FA242084F83D002068016821F077
:10201000010101602068016841F40041016020680D
:10202000016821F40041016000F0B0FB4D4A616895
:10203000914201D84C4900E04C49884201D201202C
:1020400070BD4B492368B0FBF1F15E6826F03F0696
:102050000E435E606368934206D94FF4967359430A
:102060004FF47A73B1FBF3F12368491C1E6A26F022
:102070003F06314319626168914210D84900401E01
:10208000B0FBF1F2521CC2F30B02042A01D204206D
:1020900022E0B0FBF1F0401CC0F30B001CE0A26892
:1020A000F2B301EBC10303EB0116431EB3FBF6F3DE
:1020B0005B1C43F480431B0549D092B301EBC10282
:1020C00002EB0111401EB0FBF1F0401CC0F30B000D
:1020D00040F4804040F400402168CA694CF6FF7328
:1020E0009A431043C861D4E907100143206802688D
:1020F00022F0C00211430160D4E9030101432068CA
:10210000826848F2FF339A4311438160D4E90501A4
:1021100008432168CA6822F0FF021043C86001E04A
:102120000EE016E02068016841F0010101602564BD
:10213000202084F83D00256384F83E50002070BDC7
:1021400001EB4106431EB3FBF6F35B1CB3E7012032
:10215000C2E701EB4101401EB0FBF1F0401CC0F3AF
:102160000B00B7E7A086010080841E0000093D0037
:1021700040420F002DE9F84F0025DDF828909846E1
:1021800017468A4604460095FFF728FF064694F84E
:102190003D0020287AD11923012283492046009648
:1021A00001F010FD0028F5D194F83C0001286DD015
:1021B000012084F83C0020680168C90703D1016848
:1021C00041F0010101602068016821F400610160B3
:1021D000222084F83D00102084F83E0025646762C8
:1021E000A4F82A80608D20857048E06233464A4614
:1021F0005146204601F0FCFB00287DD1208DDFF800
:10220000B081202768B1012814D002282068016815
:102210001ED041F4806101602068416980690090AE
:10222000B5E02068416981690091016841F400715D
:102230000160ACE02068016821F48061016072B641
:102240002068416981690091016841F400710AE0E8
:1022500041F40061016072B62068416981690091B2
:10226000016821F48061016062B690E0032868D8BB
:1022700001280CD002284B464FF000024146204670
:1022800000960FD001F09EFCB0BB10E08AE0324611
:102290004946204601F015FD70BB20680069616A5F
:1022A00008706BE001F08EFC30BB72B634E0206841
:1022B000016821F48061016072B620680069616A7A
:1022C0000870606A401C6062208D401E2085608D11
:1022D000401E6085374846F2A8110068B0FBF1F057
:1022E000C0EBC00000EB80000090401E009008D0C2
:1022F00020684069C04300E029E040070CD5009801
:10230000F3E744F8305F6773A573206940F020005D
:10231000206162B625731AE02068016841F40071FB
:10232000016020680069616A0870606A401C606230
:10233000218D491E2185618D491E618562B6216806
:102340001AE032464946204601F0BBFC10B101209C
:10235000BDE8F88F20680069616A0870606A401CF7
:102360006062218D491E2185618D491E618521682C
:102370004A69D24352070AD409690170606A401C55
:102380006062208D401E2085608D401E6085208DFE
:1023900000287FF46BAF84F83D7084F83E5084F8D9
:1023A0003C50D5E70220D3E7020010000000FFFFF9
:1023B00004000100140000202DE9F84F1F4690464C
:1023C0008A460446DDF82890FFF708FE054694F893
:1023D0003D0020287FD11923012240492046009545
:1023E00001F0F0FB002876D194F83C00012872D06F
:1023F000012084F83C0020680168C90703D1016806
:1024000041F0010101602068016821F40061016070
:10241000212084F83D00102084F83E000026266428
:10242000C4F824806785608D20852D48E0622B46A6
:102430004A465146204601F051FB90B92068416957
:102440008069009036E02A464946204601F06CFC3F
:1024500050B1206C042804D12068016841F4007157
:1024600001600120BDE8F88F606A2168007808618A
:10247000606A401C6062618D491E6185218D491E24
:1024800089B2218522685369DB435B070BD451B1C4
:1024900000781061606A401C6062608D401E60853B
:1024A000208D401E20852A464946204601F064FBC7
:1024B0000028CED1208D0028C5D154F83D0B0168ED
:1024C00041F400710160202004F81E09E677667768
:1024D0000020C7E7FFE70220C4E700000200100069
:1024E0000000FFFF10B586B000210091019102911C
:1024F000039100680F4988421AD10F4CA06940F03F
:102500000800A061A069694600F008000490C0209E
:10251000009012200190032003900848FFF768FC08
:10252000E06940F40010E061E06900F400100490FC
:1025300006B010BD0054004000100240000C0140E5
:1025400002488168027811448160704708000020C9
:10255000074810B5016841F010010160032000F048
:102560006DF80F2000F006F800F024F8002010BDF0
:102570000020024070B50D4D04464FF47A71287862
:10258000B1FBF0F00A490968B1FBF0F000F014FD6E
:1025900048B9102C07D200222146501E00F02EF818
:1025A00000206C6070BD012070BD0000080000209C
:1025B00014000020094808B5816941F001018161DA
:1025C000816901F001010091C16941F08051C1614F
:1025D000C06900F08050009008BD0000001002406B
:1025E000002809DB00F01F02012191404009800012
:1025F00000F1E020C0F8001170470000F0B40E4B6D
:102600001B680C46C3F30223C3F10705042D00D950
:102610000425191D072901D2002300E0DB1E012635
:1026200006FA05F1491E214099409E40761E16404B
:102630003143F0BC02F081B80CED00E0064900F037
:10264000070208684FF6FF03184040EA0220034AD9
:1026500010430860704700000CED00E00000FA0530
:102660002DE9F0470F46050061D0434E306800F079
:102670000700B84209D2306820F0070038433060C4
:10268000306800F00700B84251D128683B4C810700
:1026900012D5400703D5606840F4E0606060287898
:1026A000000703D5606840F4605060606068A96806
:1026B00020F0F000084360602878C00728D06868E0
:1026C000012810D02168022810D0890700292EDAAD
:1026D000616821F0030101436160FFF77FFC8046E0
:1026E00041F288390DE021688903EFE78901EDE7C0
:1026F000FFF774FCA0EB0801494502D90320BDE8AF
:10270000F0876068696800F00C00B0EB810FEFD1D2
:10271000306800F00700B8420BD9306820F007009D
:1027200038433060306800F00700B84201D0012023
:10273000E5E72878400705D56068E96820F4E0609F
:10274000084360602878000706D56068296920F48E
:10275000605040EAC100606000F038F86168084AE3
:10276000C1F30311515CC84006490860064800687F
:10277000FFF700FF0020C2E70020024000100240E7
:10278000F25A0008140000200C00002004480549FB
:1027900000684968044AC1F30221515CC84070478F
:1027A0001400002000100240025B000804480549A4
:1027B00000684968044AC1F3C221515CC8407047AF
:1027C0001400002000100240025B000812A185B036
:1027D0000FC98DE80F0014A0144A006804905168D6
:1027E000134801F00C03042B10D0082B0ED1C1F3B9
:1027F0008343C9031DF803000AD5516804AAC1F335
:102800004041515C0A4A5043B0FBF1F005B07047BB
:1028100008494843FAE700000203040506070809CF
:102820000A0B0C0D0E0F10100102000000100240E8
:1028300000127A0000093D002DE9F84F040070D025
:102840002078C04DC00749D06868C0F381000128D6
:1028500007D06868C0F38100022809D16868C00306
:1028600006D52868800339D560680028E7D035E0B0
:102870006068B0F5803F0BD010B1B0F5A02F11D03B
:10288000286820F480302860286820F4802002E046
:10289000286840F480302860606890B1FFF79EFBA4
:1028A00006460AE0286840F480202860F0E700BF70
:1028B000FFF794FB801B642873D828688003F7D542
:1028C0000CE0FFF78BFB064605E000BFFFF786FB39
:1028D000801B6428F0D828688003F7D420789A4EAB
:1028E00080074FF001094FF0000839D5686810F0F3
:1028F0000C0F07D06868C0F38100022809D168680E
:10290000C00306D42868800714D52069012808D19F
:1029100010E02069B0B1C6F80090FFF75FFB0746F2
:1029200005E00AE1FFF75AFBC01B0228C4D828685B
:102930008007F7D52868616920F0F80040EAC100F7
:1029400028600DE0C6F80080FFF748FB074604E06A
:10295000FFF744FBC01B022823D828688007F7D460
:10296000207800072CD57948A169D9B1C0F800902A
:10297000FFF734FB074604E0FFF730FBC01B0228DB
:102980000FD8686A8007F7D571484FF4FA5100688C
:10299000B0FBF1F0009000BF0098411E0091FAD208
:1029A0000EE080E0C0F80080FFF718FB074604E067
:1029B000FFF714FBC01B022875D8686A8007F7D49C
:1029C0002078400760D5E8690027C00008D4E8698E
:1029D00040F08050E861E869012700F080500090E5
:1029E0005C480168C90513D40168834641F48071CD
:1029F0000160FFF7F3FA824606E000BFFFF7EEFA48
:102A0000A0EB0A0064284ED8DBF80000C005F5D51D
:102A1000E06801280AD008B1052813D0286A20F000
:102A200001002862286A20F0040002E0286A40F0D1
:102A300001002862E06841F2883B98B1FFF7CEFAC6
:102A400082460BE0286A40F004002862EEE700BFEF
:102A5000FFF7C4FAA0EB0A0159455AD8286A800743
:102A6000F6D50CE0FFF7BAFA824605E0FFF7B6FAB2
:102A7000A0EB0A0159454CD8286A8007F6D41FB14B
:102A8000E86920F08050E861E06988B36968C1F3C3
:102A90008101022944D00228C6F8608004D0FFF7E3
:102AA0009DFA044638E034E0FFF798FA074604E060
:102AB000FFF794FAC01B02282BD828688001F7D4AE
:102AC000206AB0F5803F05D16868A16820F4003025
:102AD00008436860D4E908010843696821F4741167
:102AE00008436860C6F86090FFF778FA044606E08D
:102AF00025E000BFFFF772FA001B022809D82868FA
:102B00008001F7D51BE000BFFFF768FA001B022821
:102B100002D90320BDE8F88F28688001F4D40EE0C4
:102B20000128F7D06868226A00F48031914204D10C
:102B3000616A00F47010884201D00120EAE70020A9
:102B4000E8E70000001002400000424280044242D8
:102B5000140000200070004070B5040009D0606AC5
:102B6000002540B125616561A56294F8510040B12E
:102B70000CE0012070BD6068B0F5827FF4D0E561A3
:102B8000F2E784F85050204600F040F8022084F824
:102B900051002068016821F040010160A08821896E
:102BA00000F4827001F404410843A18901F400613A
:102BB0000843217C01F002010843217D01F001015D
:102BC0000843218B01F400710843217F01F0380193
:102BD000084394F8201001F080010843218D01F48E
:102BE0000051084321680860A069042101EA1040EF
:102BF000216848602068C16921F40061C161656590
:102C0000012084F85100002070BD000030B585B06F
:102C100000240094019402940394006814498842AB
:102C200023D11448816941F480518161816901F4A3
:102C300080510491816941F00401816180690E4DE8
:102C400000F004000490A0200090022001900320D6
:102C5000039069462846FFF7CBF84020CDE90004F1
:102C6000694628460294FFF7C3F805B030BD00005E
:102C70000030014000100240000801402DE9F84FEB
:102C8000044640680025984616460F464FF0040B50
:102C9000B0F5827F01D1A06888B194F85000012876
:102CA00018D0012084F85000FFF798F9814694F875
:102CB00051004FF0000A01280ED0022582E084F86E
:102CC00051B013460A462046CDF8008000F083F844
:102CD000BDE8F88F0220FBE7002F72D0002E70D0E5
:102CE00084F851B0C4F854A0A763A687E687C4F857
:102CF00030A0A4F834A0A4F836A0C4F840A0C4F8CA
:102D000044A0A068B0F5004F09D12068016821F007
:102D1000400101602068016821F480410160206861
:102D20000168490603D4016841F040010160E06890
:102D3000D8B139E020688168C90709D0007BA16B50
:102D40000870A06B401CA063E08F401EE0870CE081
:102D5000FFF744F9A0EB0901414503D3B8F1FF3F68
:102D600003D036E0B8F1000F33D0E08F0028E1D176
:102D70001DE020688168C90709D0C068A16B088080
:102D8000A06B801CA063E08F401EE0870CE0FFF783
:102D900025F9A0EB0901414503D3B8F1FF3F03D06A
:102DA00017E0B8F1000F14D0E08F0028E1D14A46B7
:102DB0004146204601F044F908B120206065606D6D
:102DC00000B10125012084F8510084F850A0284664
:102DD0007EE70325F6E72DE9F84F044690F850000A
:102DE00000270A9E1D4692468B464FF00109012896
:102DF0000ED0012084F85000FFF7F0F8804694F8D8
:102E00005100616801280CD0B1F5827F07D102E042
:102E10000220BDE8F88FA16809B9042801D0022773
:102E2000C2E0BBF1000F27D0BAF1000F24D01DB3D0
:102E300094F85100042802D0052084F851000020A5
:102E40006065C4F838A0E587A587C4F830B0E5868A
:102E5000A5862064606420680168490603D401687F
:102E600041F040010160E068B0F5006F606805D096
:102E7000E8B3012D46D07FE0012795E008B1012D90
:102E800039D1206B21680088C860206B801C2063CA
:102E9000E08E401EE0862EE02068816889070FD50D
:102EA000E18E69B1B9F1010F0AD1216B0988C160C6
:102EB000206B801C2063E08E401EE0864FF00009EE
:102EC00020688168C9070CD0E18F51B1C068A16B3F
:102ED0000880A06B801CA063E08F401EE0874FF04D
:102EE0000109FFF77BF8A0EB0800B04200E009E021
:102EF00001D3701C50D1E08E0028CDD1E08F002886
:102F0000CAD13FE0206B216800780873206B401C19
:102F10002063E08E401EE0862EE0206881688907ED
:102F20000FD5E18E69B1B9F1010F0AD1216B097892
:102F30000173206B401C2063E08E401EE0864FF042
:102F4000000920688168C9070CD0E18F51B1C068C1
:102F5000A16B0870A06B401CA063E08F401EE0874F
:102F60004FF00109FFF73AF8A0EB0800B04202D396
:102F7000701C01D010E07EB1E08E0028CDD1E08F32
:102F80000028CAD142463146204601F087F828B1D0
:102F900001272020606507E0032705E0A06818B935
:102FA0002068C16880680090012084F851000020EA
:102FB00084F8500038462CE710B5401EB0F1807FF1
:102FC00001D3012010BD4FF0E02460610F21601794
:102FD00001F0B3FB0020A06107202061002010BD9C
:102FE0007047704770B590F83C20012A26D0012424
:102FF00080F83C40022280F83D2003685A689D68B2
:1030000022F070060A6832435A600D4B02689A42F9
:1030100008D0B2F1804F05D00A4B9A4202D00A4B39
:103020009A4204D1496825F080031943916080F8E1
:103030003D40002180F83C10084670BD022070BD64
:10304000002C0140000400400008004010B50400BE
:1030500003D094F83D0010B107E0012010BD00201E
:1030600084F83C00204600F01FF8022084F83D0060
:10307000211D206801F0B4F8012084F8460084F88E
:103080003E0084F83F0084F8400084F8410084F852
:10309000420084F8430084F8440084F8450084F832
:1030A0003D00002010BD000008B50068B0F1804F61
:1030B00012D10A48C16941F00101C161C069002211
:1030C00000F00100009002211C20FFF797FABDE8F4
:1030D00008401C20FFF784BA08BD00000010024021
:1030E00090F83D10012901D001207047022180F89D
:1030F0003D100168CA6842F00102CA6000680B49CD
:10310000884208D0B0F1804F05D00949884202D0EA
:103110000849884204D1816801F00701062903D0DB
:10312000016841F00101016000207047002C01405E
:10313000000400400008004070B5044690F83C00D0
:10314000012817D0012584F83C50022084F83D0066
:103150002068826822F0770222F47F428260086849
:10316000502830D00DDC20284DD005DC98B3102835
:103170003BD148E0022070BD302844D0402834D1F3
:1031800039E0602828D0702806D0B0F5805F2CD0B8
:10319000B0F5005F29D10AE0CB68D1E901212068B0
:1031A00001F061F82068816841F0770109E0CB689F
:1031B000D1E90121206801F056F82068816841F4C6
:1031C0008041816011E0CA684968206801F000F917
:1031D0005021206807E016E0CA684968206801F0BD
:1031E00008F96021206801F048F884F83D5000207B
:1031F00084F83C0070BDCA684968206801F0E8F8AE
:1032000040212068EFE7226801461046EBE770474F
:1032100070B50446006801694FF00005C94389078D
:1032200015D4C168C943890711D4E91E0161012081
:103230002077206880698007204602D0FFF7E7FFEB
:1032400004E000F0BBF8204600F04AF9257720683A
:103250000169C943490717D4C168C943490713D451
:103260006FF004010161022020772068806910F46A
:10327000407F204602D0FFF7CAFF04E000F09EF82E
:10328000204600F02DF9257720680169C943090718
:1032900016D4C168C943090712D46FF0080101614F
:1032A000042020772068C0698007204602D0FFF7FD
:1032B000AEFF04E000F082F8204600F011F9257717
:1032C00020680169C943C90617D4C168C943C90642
:1032D00013D46FF010010161082020772068C069C5
:1032E00010F4407F204602D0FFF791FF04E000F089
:1032F00065F8204600F0F4F8257720680169C94395
:10330000C90708D1C168C943C90704D1891E016131
:10331000204600F049F920680169C943090609D42B
:10332000C168C943090605D46FF0800101612046D8
:10333000FFF756FE20680169C943490609D4C168F0
:10334000C943490605D46FF040010161204600F0F1
:103350002CF920680169C94389060BD4C168C943A7
:10336000890607D46FF0200101612046BDE8704056
:10337000FFF737BE70BD000000B585B00021009199
:103380000191029103910068B0F1804F10D109487A
:10339000816941F0040181618069694600F004009F
:1033A000049002200090019003900348FEF720FD56
:1033B00005B000BD0010024000080140704770B524
:1033C000044690F83C000D4601280AD0012084F8FC
:1033D0003C0042B1042A18D0082A2AD00C2A4DD128
:1033E00039E0022070BD206800F050FF206881693C
:1033F00041F0080181612068816921F00401816147
:10340000206881692A69114311E0206800F066FF95
:103410002068816941F4006181612068816921F43B
:1034200080618161206881692A6941EA02218161A4
:1034300024E0206800F07EFF2068C16941F00801A7
:10344000C1612068C16921F00401C1612068C169BE
:103450002A69114311E0206800F098FF2068C169D3
:1034600041F40061C1612068C16921F48061C161DA
:103470002068C1692A6941EA0221C161002084F8FB
:103480003C0070BD10B5040003D094F83D0010B1AD
:1034900007E0012010BD002084F83C00204600F029
:1034A0001EF8022084F83D00211D206800F098FEDF
:1034B000012084F8460084F83E0084F83F0084F838
:1034C000400084F8410084F8420084F8430084F806
:1034D000440084F8450084F83D00002010BD70478A
:1034E0007047000010B50446022249B1042912D0E9
:1034F00008291CD094F84100012823D0012010BDD8
:1035000094F83E000128F9D184F83E202068C26872
:1035100042F0020209E094F83F000128EED184F85D
:103520003F202068C26842F00402C2600EE094F8B6
:1035300040000128E2D184F840202068C26842F0AF
:103540000802F2E784F841200C2922D001222068E9
:1035500000F07CFE11492068884203D1426C42F49D
:10356000004242642068884208D0B0F1804F05D004
:103570000B49884202D00B49884204D1816801F08E
:103580000701062903D0016841F001010160002014
:1035900010BD2068C26842F01002C6E7002C01404E
:1035A00000040040000800407047704770477047B3
:1035B000F8B5026804461068D168536910F00F0F1F
:1035C0004FF0000553D003F0010601F49077374324
:1035D0005FD0C20705D0CA0503D5226C42F00102B4
:1035E0002264420705D5DA0703D0226C42F00202BA
:1035F0002264820705D5DA0703D0226C42F0040268
:103600002264020707D501F02002324303D0226C66
:1036100042F008022264226C002A34D0800604D5CD
:10362000880602D5204600F067FF20684069216CBB
:10363000C0F38010090700D430B3204600F044FFE7
:103640002068416949061BD5416921F0400141616B
:10365000A06BA8B158494163A06BFEF76BFB002833
:1036600011D0A06B416B01B0BDE8F0400847830664
:103670000FD58B060DD52046BDE8F84000F03CBFC5
:103680002046FFF794FFF8BD2046FFF790FF256422
:10369000F8BD266B2023012E52D1C60650D5CE068A
:1036A0004ED5106850680090506940062AD5A16B2D
:1036B000086840680004000CEAD0A68D8642E7D96D
:1036C000E0858869202818D0D06820F48070D06008
:1036D0002068416921F0010141612068416921F0C0
:1036E0004001416184F83E3025632068C16821F0C3
:1036F0001001C160A06BFEF7FAFAA08DE18D401AAF
:1037000081B219E0A08DE18D401A81B2E08D0028D0
:10371000BED00029BCD0D06820F49070D060206862
:10372000426922F00102426184F83E30256320683C
:10373000C26822F01002C2602046FFF737FFF8BDD2
:1037400005062BD50D0629D594F83D002128F6D184
:10375000A068B0F5805F01D12069B0B1206A411C3A
:103760002162216800784860E08C401E0004000C53
:10377000E084E4D12068C16821F08001C160206844
:10378000C16841F04001C160F8BD206A0088C0F303
:1037900008005060206A801C2062E5E74006F3D5EF
:1037A0004806F1D5D168204621F04001D16084F867
:1037B0003D3000F004F9F8BDB944000870B50400CC
:1037C00004D094F83D00002510B106E0012070BD42
:1037D00084F83C50204600F023F8242084F83D0073
:1037E0002068C16821F40051C160204600F0E0FE6D
:1037F0002068016921F4904101612068416921F04C
:103800002A0141612068C16841F40051C16025640A
:10381000202084F83D0084F83E00002070BD0000A8
:1038200030B585B00024009401940294039400689C
:10383000184988422CD11848816941F4804181613E
:10384000816901F480410491816941F00401816141
:103850008069124D00F0040004904FF40070009055
:10386000022001900320039069462846FEF7C0FA23
:103870002815CDE90004694628460294FEF7B8FAF7
:10388000002201212520FEF7B9FE2520FEF7A8FE23
:1038900005B030BD00380140001002400008014072
:1038A00090F83E30202B0ED159B152B190F83C30F7
:1038B000012B08D0012380F83C300023036300F083
:1038C000D3BE012070470220704700000C49884297
:1038D00015D10C488178A1F14102192A04D80A4B6C
:1038E00042689954521C42604168202901D101214B
:1038F000416004490122891C0148FFF7D1BF70478C
:103900003801002000000020240000202DE9F843A9
:10391000044690F83D001F4616460D4620284CD11F
:10392000C5B1BEB194F83C00012846D0012084F80E
:103930003C004FF00008C4F84080212084F83D008E
:10394000FEF74CFBA6848146E684A068B0F5805F54
:1039500003D004E00120BDE8F883206928B12E4699
:103960005FF0000584F83C800EE00026FAE7802135
:10397000204600F094FEA0B9AEB116F8010B216804
:103980004860E08C401EE084E08C4B464FF0000223
:1039900000970028EBD14FF04001204600F07FFE59
:1039A00030B10320D7E735F8020BC0F30800E6E793
:1039B000202084F83D000020CDE70220CBE77047AF
:1039C000FEE701684A69D24352050FD46FF4806262
:1039D0004A61002140F8301F20224273817302693E
:1039E00042F0040202610173012070470020704719
:1039F0002DE9F84F0446C06A1E4693460D462168DD
:103A00000A6842F480620A60082807D0012805D0BD
:103A100010F5803F02D0206B112804D12068016886
:103A200041F4807101604FF001195B460022494664
:103A30002046009600F0C6F84FF4007840B12068A8
:103A40000068C00501D5C4F840800320BDE8F88FA8
:103A50002069DFF884A0B0F5804F0FD006202168E0
:103A600000EAD51747F0F000086133465A460AF1DC
:103A70000601204600F0DAF858BB03E0E8B240F057
:103A800001001CE02168E8B2086133465A465146FD
:103A9000204600F0CBF8E0B92068416981690091C7
:103AA000016841F4807101605B460022494620466E
:103AB000009600F087F80028C1D147F0F100216896
:103AC000086133465A465146204600F0AFF80028B8
:103AD000BCD00120BAE7000002000100F8B504469E
:103AE000C06A1E460D461746082807D0012805D093
:103AF00010F5803F02D0206B122804D120680168A5
:103B000041F480710160134600224FF001112046FC
:103B1000009600F057F840B120680068C00502D553
:103B20004FF4007020640320F8BD2069B0F5804F89
:103B30000ED00620216800EAD51040F0F0000861A0
:103B400033463A460B49204600F070F878B902E057
:103B500005F0FE0000E0E8B221680861054933463F
:103B60003A46891F204600F061F80028DCD0012089
:103B7000F8BD00000800010070B516460D46044669
:103B80000DE02046FFF71DFF08B1012070BD681C45
:103B900005D0FEF723FA801BA84207D835B120686C
:103BA0004069C0434007ECD4002070BD002044F8B9
:103BB000300F20216173A073216941F02001216140
:103BC0002073E2E72DE9F0471E4690460D46044675
:103BD000C1F30747DDF8209008E0701C06D0FEF71F
:103BE000FDF9A0EB0900B0420FD876B12068012F93
:103BF00018D0806925EA00000004000C14D00021D0
:103C00004145EAD00020BDE8F087002044F8300F9D
:103C100020216173A073216941F02001216120738B
:103C20000120F0E74069E5E70121E9E72DE9F047E8
:103C30009A4691460E46044600254FF02008C1F3EF
:103C4000074725E020684069C043400514D4206838
:103C5000016841F40071016021686FF4806048617F
:103C6000256384F83D8084F83E50206C40F00400C9
:103C7000206484F83C501FE0B9F1FF3F08D0FEF704
:103C8000ADF9A0EB0A0149450CD8B9F1000F09D0F4
:103C90002068012F13D0806926EA00000004000C80
:103CA0000BD0CFE744F8305F84F80D80A57320690E
:103CB00040F02000206125730120BDE8F0874069B5
:103CC000EAE72DE9F041002590460E4604462027FC
:103CD00017E04069C043C0060CD454F8301B6FF0A5
:103CE0001000486144F810596777A577206A206270
:103CF000257717E0FEF772F9A0EB0800B04208D86C
:103D00003EB120684169C9434906E2D40020BDE8BC
:103D1000F08144F8305F6773A573206940F020009C
:103D2000206125730120F2E770B516460D46044662
:103D30000DE02046FFF745FE08B1012070BD681C6C
:103D400005D0FEF74BF9801BA84207D835B1206893
:103D50004069C0430006ECD4002070BD002044F848
:103D6000300F20216173A073216941F0200121618E
:103D70002073E2E72DE9F04385B000242548009444
:103D8000019402940394816941F010018161816979
:103D900001F010010491816941F0040181618169A0
:103DA00001F004010491816941F008018161806999
:103DB000DFF8648000F008000490012210214046E2
:103DC000FEF706F9DFF854904FF4C0470022394659
:103DD0004846FEF7FDF84FF40050CDE9000469466F
:103DE0000F480294FEF704F8102001250226CDE9C1
:103DF0000005CDE9024669464046FDF7F9FF009708
:103E00000396CDE9015469464846FDF7F1FF05B038
:103E1000BDE8F0830010024000080140000C0140A2
:103E2000001001400D4810B50B4901600C4941607C
:103E300000214FF480428160C0E903124161816139
:103E4000C1610162FEF7D2F8002803D0BDE810403E
:103E5000FDF74BBF10BD000000540040440000209F
:103E6000A0860100104810B50E4901604FF4827120
:103E7000416000218160C1604FF400720161C0E9BE
:103E800005122822C0E90721416281620A21C1622C
:103E9000FEF762FE002803D0BDE81040FDF725BF05
:103EA00010BD0000003001409800002010B58EB019
:103EB00000240794089409940A940B941C216846E2
:103EC0000C94FCF764FA1E484FF0804101604F21CA
:103ED000C0E90114C721C0E9031480218161FFF703
:103EE000B5F808B1FDF701FF4FF48050079007A91E
:103EF0001348FFF721F908B1FDF7F7FE1048FFF767
:103F0000C1FA08B1FDF7F1FE0B940BA90C480C9413
:103F1000FFF768F808B1FDF7E8FE6020CDE900047E
:103F200002940422694606480494FFF748FA08B14F
:103F3000FDF7DBFE0248FFF71FFA0EB010BD0000D0
:103F4000F00000200C4810B50A4901604FF4E1313F
:103F50004160002181600C22C160C0E904128161CE
:103F6000C161FFF72BFC002803D0BDE81040FDF72E
:103F7000BCBE10BD0038014038010020F8B51B4C14
:103F80000026324610212046FEF722F80120FDF7D8
:103F90001DFF002210212046FEF71AF86423042298
:103FA00069461348FEF76AFE012210212046FEF7FB
:103FB0000FF80120FDF70AFF012210212046FEF72D
:103FC00007F8BDF80000BDF8021040BA4DBA094C20
:103FD000C10702D001202070F8BD267000F01CFA45
:103FE00060602846FDF732FEA060F8BD0008014081
:103FF0009800002018000020FEE700000FB40D48D4
:1040000070B54FF4807505AC2946FCF79EF9234640
:1040100029460848049AFCF72DF90648FCF744F9AC
:1040200082B24FF6FF7303490348FFF76FFC70BC81
:104030005DF814FB7C01002038010020FEE770478A
:10404000F8B5044640684FF48273984217D1A068CF
:104050004FF48065B0F5004F01D0A8420FD1206821
:10406000066826F0400606606068984207D1A0689E
:10407000A84204D100920B460022012103E00092E5
:104080000B4600228021204600F018F8002804D0BA
:10409000606D40F0200060650320F8BD38B50B4628
:1040A000009204460022802100F008F8002804D085
:1040B000606D40F020006065032038BD2DE9F843B5
:1040C0001E46914688460446089DFDF787FF401B23
:1040D000351AFDF783FF074625480068C0F3CB304B
:1040E000684338E0701C37D0FDF778FFC01BA8424A
:1040F00003D215B1009860B32CE02068416821F02C
:10410000E00141606068B0F5827F0BD1A068B0F536
:10411000004F02D0B0F5806F04D12068016821F013
:1041200040010160A06AB0F5005F09D12068016814
:1041300021F4005101602068016841F400510160E0
:10414000012084F85100002084F850000320BDE8CD
:10415000F8830025401E00902068816838EA01003D
:1041600004D000214945BDD10020F0E70121F9E745
:10417000140000207047FEF7E3B930B58FB0282156
:104180006846FCF704F914210AA8FCF700F901209D
:10419000022504900095102005900024CDE90754D5
:1041A00068460994FEF748FB08B172B6FEE70F2097
:1041B000CDE90A054FF48060CDE90C4000210AA842
:1041C0000E94FEF74DFA002801D072B6FEE70FB04C
:1041D00030BD70470148FFF71BB80000F000002019
:1041E000F0B50268164B174C174D4FF080479842B8
:1041F00005D0B84203D0A04201D0A84203D122F09A
:1042000070064A683243984205D0B84203D0A042B3
:1042100001D0A84203D122F44074CA6822434C69F9
:1042200022F08002224302608A68C2620A688262C7
:10423000984201D10969016301214161F0BD00008B
:10424000002C0140000400400008004010B501F0BF
:104250001F030121046A99408C430462016A9A4059
:104260001143016210BD10B5846842EA032224F4B0
:104270007F440A432243826010BD826822F07002AC
:104280000A4342F0070181607047000030B5026ABE
:1042900022F001020262026A4368846924F0730515
:1042A0000C682C4322F002058A682A430A4DA84272
:1042B0000BD122F00805CA6823F440732A434D69E4
:1042C00022F004021D438B692B43436084614968DB
:1042D0004163026230BD0000002C014030B5026A2B
:1042E00022F010020262026A436884690D6824F4B5
:1042F000E64444EA05248D6822F0200242EA0512D1
:104300000B4DA8420ED1CD6822F0800242EA051280
:104310004D6923F4406343EA85038D6922F040022E
:1043200043EA85034360846149688163026230BD6A
:10433000002C014030B5026A22F480720262036AE6
:104340004268C46923F4007324F073050C682C439D
:104350008D6843EA05230C4DA8420ED1CD6823F4A5
:10436000006343EA05234D6922F4405242EA0512F4
:104370008D6923F4806342EA05124260C461496892
:10438000C163036230BD0000002C014030B5026AF9
:1043900022F480520262046A4268C3690D6823F401
:1043A000E64343EA05238D6824F4005444EA0534C7
:1043B000064DA84204D14D6922F4804242EA85129A
:1043C0004260C36149680164046230BD002C014051
:1043D00010B5036A046A24F001040462846924F0BD
:1043E000F00444EA021423F00A020A4384610262E0
:1043F00010BD10B5036A23F0100303628369046AD9
:1044000023F4704343EA023224F0A00343EA01118B
:104410008261016210BD000070B50446C0F38100E6
:1044200000F03AFF6FF0010201F01DFB00F0AAFC62
:104430000646C4F30A152004134C14D531464FF038
:104440007E5001F065FA0646A5F2FF75684201F05C
:10445000E9F9314601F084F9606001F055F902464E
:104460000B460AA00BE0284601F0F4F9314601F0B2
:1044700077F9606001F048F902460B4609A0FFF7A2
:10448000BDFD606870BD00001800002074342E74FB
:1044900078743D222D25302E3266A1E622FFFFFFE3
:1044A0000000000074342E7478743D2225302E32C2
:1044B00066A1E622FFFFFF0010B5406A0021C1851A
:1044C000C184FFF774F810BD0168CA6822F49072C5
:1044D000CA6001684A6922F001024A61016B012940
:1044E00004D10168CA6822F01002CA60202180F855
:1044F0003E1000210163704708B590F83E10222954
:1045000001D0022008BD82684FF480539A4201D145
:10451000016921B1816A9A421BD04AB10AE002685E
:10452000816A5268C2F308020A80816A891C08E025
:10453000026972B10268526802F07F020A70816AF1
:10454000491C8162C18D491E0904090CC18503D033
:1045500019E002685268F1E70168CA6822F0200297
:10456000CA600168CA6822F48072CA6001684A6938
:1045700022F001024A61202180F83E10016B0129DE
:1045800003D0FFF7A3F9002008BD002101630168F3
:10459000CA6822F01002CA6001680A68D20602D511
:1045A0000A6849680091818DFFF700F8EBE7000089
:1045B00070B5044600680169E26821F44051114376
:1045C00001612169A0680843616908432168CA68DC
:1045D00041F20C639A430243CA6020684169A269B0
:1045E00021F44071114341611E492068884202D183
:1045F000FEF7DCF801E0FEF7C9F800EBC00101EBC3
:104600000012606864218000B2FBF0F3B3FBF1F3A9
:104610006FF018067343B2FBF0F5B2FBF0F605EB52
:104620008305322303EB0515B5FBF1F5B6FBF1F677
:1046300005F0F00505EB0615B2FBF0F6B2FBF0F065
:10464000B0FBF1F06FF01802504306EB800003EB73
:104650000010B0FBF1F0216800F00F0028448860E2
:1046600070BD00000038014081628285C285002152
:104670000164222280F83E2080F83C100168CA685C
:1046800042F48072CA6001684A6942F001024A61DC
:104690000068C16841F02001C160002070472DE929
:1046A000F041984617460E460446069D1DE0681CDC
:1046B0001BD02DB1FDF792FCA0EB0800A84214D945
:1046C0002068C16821F4D071C1602068416921F07F
:1046D00001014161202084F83D0084F83E00002063
:1046E00084F83C000320BDE8F0812068006836EAC9
:1046F000000004D00020B842D9D00020F3E7012008
:10470000F9E700000148FEF753BF00003801002020
:10471000FEE7490050EAC12018BF04204A0D18BF27
:1047200040F0010040F2FF72B2EB515F08BF40F071
:104730000200012808BF052070470907090E00285C
:1047400004DB00F1E02080F80014704700F00F0057
:1047500000F1E02080F8141D704730380A2801D29B
:1047600001207047002070470FB41CB519AC94E8C5
:1047700007008DF804008DF805108DF806204FF421
:104780007A7407E004A8FDF72FFC042802D007A0E4
:10479000FFF734FC032301AA902104A80094FDF73D
:1047A0000BFE0028EED11CBC5DF814FB6164733174
:1047B00031313520436F6E666967205265676973D2
:1047C000746572206572726F722121210D0A0000DA
:1047D0000FB42A22F0B5A9B02EA9DDE9446414A8CB
:1047E000439DFBF780FDBDF8E200ADF87A003998F3
:1047F0001F903A9820903BA909220F4621A8FBF769
:1048000072FD9DF8F5008DF88D009DF8F6008DF88D
:104810008E003E9824903F9825904098269041988D
:10482000279042982890CDE91264442218A968463E
:104830001195FBF758FD0DF1500C9CE80F00FFF7A8
:1048400093FF0A20FDF7C2FA2A222EA911A8FBF72E
:104850004AFDBDF8E200ADF86E0039981C903A9818
:104860001D90092239461EA8FBF73DFD9DF8F50075
:104870008DF881009DF8F6008DF882003E98219019
:104880003F982290409823904198249042982590F8
:10489000442215A96846FBF726FD11AF97E80F00E3
:1048A00000F064F8A0F5FE410746FF3914D000205F
:1048B000B7F5004F12D00021084303D0002721A0F4
:1048C000FFF79CFBC6F34200214E06281BD2DFE80F
:1048D00000F0070D20262C320120ECE70121EBE748
:1048E000384600F0C2FC00221A4B04E0384600F0C3
:1048F000BCFC0022184B00F01FFD0022334600F0E4
:104900002FFB04460D4629B020462946F0BC5DF831
:1049100014FB384600F0A9FC0022104BEBE73846A8
:1049200000F0A3FC00220E4BE5E7384600F09DFCAA
:1049300000220C4BDFE7384600F097FC00220A4BC0
:10494000D9E700006F766572205047410D0A0000DC
:1049500080842E410070674000405F4000404F401F
:1049600000403F4000402F4000401F400FB4002057
:104970001CB54FF47A74019007E004A8FDF734FBEE
:10498000042802D013A0FFF739FB01230022902155
:1049900004A80094FDF710FD0028EED107E004A85C
:1049A000FDF722FB042802D013A0FFF727FB022308
:1049B00001AA912104A80094FDF7DCFB0028EED1A8
:1049C0009DF805009DF804101CBC00EB012000B20E
:1049D0005DF814FB6164733131313520636F6E769D
:1049E00065727420526567697374657220657272AE
:1049F0006F722121210D0A0061647331313135203C
:104A0000726561642064617461206572726F7221E5
:104A100021210D0A00000000AAB0FDF799FDFFF763
:104A2000ACFBFFF7A7F9FFF78DFAFFF71BFAFFF7CB
:104A3000F9F9FFF73BFA0122A649A748FEF730FF34
:104A4000A648FEF74DFB0421A448FEF74BFD642069
:104A5000FDF7BCF9DFF88C829E4CA14F08F13400C1
:104A6000A41E4FF001094FF0830B29906068384471
:104A700010F8010C542804D0412835D052287DD09C
:104A800023E100F04DF9667826B1C72E05D384F8EE
:104A9000009004E0002222700FE022786AB1002228
:104AA000914B00F05DFA05468A46304600F0F4FB73
:104AB0002A46534600F03EFD0CE000228A4B00F0EF
:104AC0004FFA05468A46304600F0E6FB2A46534632
:104AD00000F08AF900F09CFB60704FF08041C0B29A
:104AE0008863FFF74BFAF0E0804D0122510328461E
:104AF000FDF76EFA012291032846FDF769FA2A2292
:104B0000784914A8FBF7EFFBB8F82A004546ADF842
:104B10007A00D8F82C001F90D8F830002090092295
:104B200021A82999FBF7DFFB95F83D008DF88D0052
:104B300095F83E008DF88E00286C2490686C2590C6
:104B4000A86C2690E86C2790286D2890CDE9119BE1
:104B5000442218A96846CDF84CB0FBF7C4FB0DF110
:104B6000500C9CE80F00FFF733FE614A614B00F0E8
:104B7000F7F9002205460E46134600E008E000F073
:104B80009FFB01D286F000462A4633465AA09AE09F
:104B9000564D00224FF400512846FDF719FA002225
:104BA0004FF480412846FDF713FA2A224D4914A8F4
:104BB000FBF799FBB8F82A004546ADF87A0055F89E
:104BC0002C0F1F9068682090092221A82999FBF7D3
:104BD0008AFB687C8DF88D00A87C8DF88E00686952
:104BE0002490A8692590E8692690286A2790686A29
:104BF0002890CDE9119B442218A96846CDF84CB005
:104C0000FBF771FB0DF1500C9CE80F00FFF7E0FD86
:104C100006468A462A22334914A8FBF764FB35F876
:104C2000020CADF87A0028681F906868209009226D
:104C300021A82999FBF757FB687C8DF88D00A87C8B
:104C40008DF88E0068692490A8692590E8692690FF
:104C5000286A2790686A2890E322CDF84CB0CDE905
:104C60001192442218A96846FBF73DFB0DF1500C48
:104C70009CE80F00FFF7ACFD0546002200911346AB
:104C80003046514600F01CFB01D28AF0004A324601
:104C900053462846009900F04DFC02460B46002082
:104CA000194900F05DF93246534600F045FB0022F9
:104CB00005460E46134600F003FB01D286F000467F
:104CC0002A46334611A0FFF799F9C820FDF77EF870
:104CD000CCE600000200002038010020F000002097
:104CE00024000020440000200000F83F000C014098
:104CF000B81E85EB51B89E3F74322E7478743D22F5
:104D000025664122FFFFFF000088C34074322E74E5
:104D100078743D222566A6B822FFFFFF0000000040
:104D20000148406800F0F0BC1800002010B50029D0
:104D30000AD00878002807D005487844FCF776FBAD
:104D4000002801D0002010BD0248784410BD0000AA
:104D5000EE0E0000E60E000010B500290AD008781B
:104D6000002807D005487844FCF760FB002801D0F4
:104D7000002010BD0248784410BD0000DE0E000087
:104D8000D60E000021F00042A2F16052B2F5801F61
:104D900001F0004328BFD2F17F6C0BD95FEA001C01
:104DA00043EAC20242EB507018BF704728BF20F0A0
:104DB00001007047B2F5801FBCBF184670474FEA2C
:104DC000410C1CF5001F02D2084600F09CBD70B5D6
:104DD00000F05CFB00000089FFF7F6BF4FF00040D9
:104DE000A0F580007047000010B591EA030F48BF9E
:104DF00083F0004300F1A683841A71EB030C05D203
:104E0000121943EB0C03001B61EB0C01DFF824E1EA
:104E10004FEA1154A4EB135C1EEA430F18BF9EEA3D
:104E2000445F73D023EA0E03DCF1200E21EA045123
:104E300043F4801332D322FA0CFE10EB0E0023FA57
:104E40000CFE41EB0E01CCF1200E03FA0EFE10EB2E
:104E50000E0051F10001B1F5801FCCF1200E32D2CD
:104E600001EB045112FA0EF2BDE8104058BF704732
:104E7000401C38BF5FEA420218BF7047002814BFC9
:104E800020F0010041F100014FEA410313F5001F3A
:104E900038BF7047A1F1C04100F046BB012A43EB87
:104EA0000302ACF1200CDCF11F0E32BF4FF0000EFC
:104EB00023FA0CF310EB030041EB0451B4EB115F48
:104EC000D0D0A1EB045101F5801149085FEA300010
:104ED00001EB04510ED350F1000038BF12FA0EFE60
:104EE00008D1BDE81040C9E7401C38BF5FEA420264
:104EF000CAD1C3E7BDE810404FEA410313F5001FD4
:104F000038BF7047A1F1C04100F00EBB9EEA445F7C
:104F100008D011EA5E0FBDE8104004BF01F0004167
:104F200000207047BDE8104070B500F0AFFA00BF38
:104F300064FBBE3E0000E0FF02494FF0000000F0BD
:104F400060BD00BF0000F87F491058BFC1F140416B
:104F50005B1058BFC3F140438B42EFF300807047B2
:104F60002DE9C04130B4DFF8A0C23CEA111418BFEB
:104F70003CEA131400F0EC8081EA03051CEA1114EA
:104F800044EAD57418BF1CEA131500F0C780A4EBDF
:104F900005044FF0004545EAC12145EAC32341EA33
:104FA000505143EA525304F17F74994204F500349E
:104FB0004FEAC0204FEAC22208BF904200F09C8016
:104FC0004FEA13650FF24016765D4FEA134506FB74
:104FD00005F7C7F1807706FB07F74FEAD737A7FB3E
:104FE00003687642C8F58038A7FB06CE38BFA8F123
:104FF000010807FB08E64FF0000EA6FB028CE6FB5B
:1050000003CEDCF1000CCEF1004E38BFAEF1010E44
:10501000A6FB0C584FF000074FF00005E6FB0E878B
:10502000A1FB08C6A0FB07CE16EB0E0645F1000556
:10503000E1FB076515F1E04E7EBFA4F580345FEA21
:1050400046066D4116F1800745F100054FEA172726
:105050004FEA066647EA0567A6F1DE46B6F1805FCD
:105060004FEA15251FD9384624F0010C05EBC47111
:10507000BCF1FE6F01EB0C1102D8F0BCBDE8008161
:1050800024425CBF01F5801E9EEAC47F02D4F0BCBE
:10509000BDE80081244238D4F0BCA1F1C041BDE894
:1050A000004100F041BA4FEAD22242EA43524FEAAD
:1050B000D323A7FB02864FEAD02040EA415007FBEA
:1050C00003661EEA0E0F4FEAD12105FB026658BFA8
:1050D000A6EB0056B6EB00564FEA520E4EEAC37EE0
:1050E00018EB0E0E56EB530EBDD518EB02085E41C1
:1050F0007F1C55F10005B6E74FF480154FF000070F
:105100004FF000064FF00008ADE7F0BC4FF0000094
:1051100001F1C04101F00041BDE8008111EA0C1F1E
:105120000CEA131500D00CE013EA0C1F00F02580E8
:105130004FF00000F0BC81EA030101F00041BDE83E
:105140000081F0BCBDE8004181EA030100F0ECB948
:10515000F0BCBDE8004170B500F098F9097EFC3E56
:1051600000F007B881EA03014FF0000001F00041B0
:10517000704781EA030100F0D7B9F0BCBDE80041F7
:105180004FF0000021497047FFFDFBF9F7F5F4F2FD
:10519000F0EEEDEBE9E8E6E4E3E1E0DEDDDBDAD8D2
:1051A000D7D5D4D3D1D0CFCDCCCBCAC8C7C6C5C430
:1051B000C2C1C0BFBEBDBCBBBAB9B8B7B6B5B4B347
:1051C000B2B1B0AFAEADACABAAA9A8A8A7A6A5A432
:1051D000A3A3A2A1A09F9F9E9D9C9C9B9A999998F6
:1051E0009797969595949393929191908F8F8E8E99
:1051F0008D8C8C8B8B8A8989888887878685858426
:1052000084838382828181800000FF070000F87F11
:105210004FEA1153A3F58063D3F11E03A8BFD3F166
:10522000200C08DB4FF0004242EAC12252EA505201
:1052300032FA03F0704709420BD4102BC4BF002090
:10524000704703F5787CBCF1FF3F05D04FF0FF308D
:1052500070474FF00000704770B500F017F900BFBD
:105260004992248000207047F0E710F0004248BFC8
:105270004042B0FA80F310FA03F10AD0C3F11D03E3
:1052800003F580634FEA415002EB035202EBD12158
:1052900070474FF000007047B0FA80F310FA03F146
:1052A0000AD0C3F11D0303F580634FEA41504FEA72
:1052B000035202EBD12170474FF00000704700000D
:1052C00051EA030C17D41CF5801F58BFBCF5801F92
:1052D00000F10680994218BF704708BF904270479E
:1052E00007D711F5801F58BF13F5801F19D49942B5
:1052F0007047894270471CF5801F08D5BCF5801F98
:10530000F7D58B4218BF704708BF824270474FF4F1
:10531000001C1CEB410F38BF1CEB430F01D28B422A
:10532000704770B500F0B2F8922449004FF0005178
:105330004FF08053FFF708BEDFF848C170B51CEA94
:10534000111E1EBF1CEA13159EEA0C0F95EA0C0FE6
:1053500000F06F8081EA030423EA4C134EEAD47E06
:1053600021EA4C1141F4801143F48013AE44A1FBB7
:10537000024CA0FB0365AEF17F7E361955EB0C05A0
:10538000A1FB034C4CF10003A0FB021C16EB0C0626
:10539000654153F10003094218BF46F0010613F4BA
:1053A000007F0BD14FEA03314FEA0530340341EA65
:1053B000155140EA16506FF003020AE04FEAC3218C
:1053C0004FEAC520F40241EA555140EA56506FF0C9
:1053D000020202EB2E4201EB025585EACE710AD0A1
:1053E0005FEA440C18BF24F0004450F1000041F182
:1053F000000120EAD47040F2FE7C624500D270BD0C
:10540000A84214BF4FF080444FF04044002E08BF24
:105410000024BEF1806FA8BFA1F1C041BDE870407B
:1054200080F282804FF0000001F1C04101F00041A4
:1054300070479EEA0C0F0CEA131518BF95EA0C0F83
:1054400006D04FF0000081EA030E0EF0004170BD5F
:1054500000F01CF88900013E00F007B800F009B820
:105460004FEA430C5FEA5C5C08D081EA030100F07C
:105470005BB84FEA410C5FEA5C5CF6D14FF000008C
:10548000014970470000FF070000F87F0EF1020E8F
:105490002EF0030E5EF8046B364205D4012A43EB6E
:1054A000030515F5001F12D8012841EB010C1CF56E
:1054B000001F0CD80ED14FEAD17C15F5001F0CEB64
:1054C0004C0C0CF1020C08BF4CEBD37C04E04FF009
:1054D000080C01E04FEAD37C0CEB4C0526FA05F6EC
:1054E00006F00706B6F1040C06D20EEB860CBDE8FA
:1054F00070404CF0010C6047DFE80CF0090B020231
:105500004FF000414FF00000A1F5002170BD194699
:105510001046012851EB010418BFD4F5001484BFD4
:10552000002001F0004170BD0808A0F500114FEA0D
:105530003101704710B591EA030F48BF83F0004373
:105540003FF55AAC841A71EB030C07D212198CF098
:10555000004C43EB0C03001B61EB0C01DFF8A4E1F2
:105560004FEA1154A4EB135C1EEA430F18BF9EEAE6
:10557000445F00F0B08023EA6E03524221EA0451F6
:10558000C3EB6E0338BF5B1EDCF1200E25D322FA7D
:105590000CFE10EB0E0043FA0CFE41EB0E01CCF1B9
:1055A000200E03FA0EFE10EB0E0051F10001CCF1BB
:1055B000200E29D412FA0EF201EB0451BDE810407E
:1055C00058BF7047401C1CBFB2F1004F7047002805
:1055D0000CBF491C20F00100704712EB020E43EB98
:1055E000030218BF4FF0010E4EEA4202ACF1200C4C
:1055F000DCF11E0E54D943FA0CFE10EB0E0051F1F3
:10560000FF31CCF11E0ED5D50EF1010E12FA0EFEB1
:10561000404141EB010101EB445C5FEA5C5C10D965
:1056200010EBDE7001EB045138BFBEF1004FBDE856
:10563000104018BF704700280CBF491C20F0010023
:10564000704730D24FEAD42C11F5001124F40064D5
:105650001BD0B1FA81F20B3AA41AA41ED2F1200396
:10566000914030FA03F31943904001EBCC71002CC8
:1056700001EB0451BDE81040A8BF704701F1C041E3
:105680004FF0000001F000417047B0FA80F310FACB
:1056900003F100D110BDE41A173C4805C90AE4E73C
:1056A00001EB045110BD491001EB0451BDE810405D
:1056B0004FEA300002E04FF0000170474A0008BF97
:1056C0000042F8D0B2F5001F28BF704701F000413A
:1056D0004FF0000070479EEA445F07D011EA5E0F6A
:1056E000BDE8104004BF002100207047BDE8104015
:1056F00070B5FFF7CBFE00BF40DFF63E83F0004100
:10570000104670470000E0FF43004FEAD30C4FEA19
:105710003C0C43401FBF40070CF1605113F0FE4F9B
:1057200070471CF0006F03D100200CF0004170475F
:105730000CF0004343EA507010B540EACC0000F092
:105740009CF800BF000000924FEA0001FFF7ECBE9A
:105750004FF000414FF00000A1F50021704700001C
:1057600090EA010F48BF81F0004100F1D880421A51
:105770003CBF801A89184FEAD0524FF07F4C1CEA88
:10578000410FA2EBD15318BF9CEA026F00F03B809F
:105790004FF0004C4CEA00204CEA012121FA03FCB6
:1057A00010EB0C0C1ED202F1FF325FEA1C2040EB22
:1057B000C25038BF70471CF07F0F4FEA400C18BF33
:1057C000BCF17F4F38BF7047C3F12003994008BF39
:1057D00020F00100BCF17F4F38BF7047A0F1C040FE
:1057E00000F091B84FEA3C00000A40EBC25028BFDD
:1057F0001CF0FF0F4FEA400CE6D018BFBCF17F4F02
:1058000038BF7047EAE79CEA026F05D010EA5C0FE8
:1058100008BF00F00040704710B500F02EF800BF40
:1058200064FBBE3E10F0004148BF4042B0FA80F336
:1058300010FA03F2C3F19D030BD051EAC35101EBFF
:105840001220530638BF704700F1010008BF20F056
:1058500001007047B0FA80F310FA03F2C3F19D0320
:105860000AD0D90501EB1220530638BF704700F16A
:10587000010008BF20F0010070470EF1020E2EF06B
:10588000030E5EF8044B244204D44FEA4102B2F105
:105890007F4F11D84FEA4003B3F17F4F0CD80ED1A0
:1058A0004FEAD07CB2F17F4F0CEB4C0C0CF1020CA8
:1058B00008BF4CEBD17C04E04FF0080C01E04FEA4C
:1058C000D17C0CEB4C0324FA03F404F00704B4F18C
:1058D000040C06D20EEB840CBDE810404CF0010C19
:1058E0006047DFE80CF0070802024FF00040A0F527
:1058F000800010BD0846420018BFD2F1807288BFF8
:1059000000F0004010BDFF2141EAD050C0057047B3
:1059100090EA010F48BF81F000413FF528AF421ADD
:1059200004D882F00042A0EB020011444FEAD052AA
:105930004FF07F4C1CEA410FA2EBD15318BF9CEAF9
:10594000026F4AD04FF0004C4CEA00204CEA012193
:1059500021FA03FCB0EB0C0C0FD412F0FE0F36D082
:105960005FEA4C001DD5001240EBC25038BF7047B3
:105970001CF03F0F18BF70470BE0A2F101025FEA75
:105980001C2040EBC25038BF70471CF07F0F18BF7F
:105990007047C3F12003994014BF401E20F001005E
:1059A000704780084FEA122308BF7047B0FA80FCA6
:1059B000A2EB0C02CCF1280C60FA0CF093EA122F47
:1059C00004BF00EBC25070474FEAC3707047130A20
:1059D0005FEADC1008BF7047F6E79CEA026F04D06C
:1059E00010EA5C0F08BF0020704710B5FFF745FFB5
:1059F00040DFF63E81F000407047FBF724B9FBF72B
:105A000059BA0CF00F03092B08BF082000F0598089
:105A10000A2B0BD0082B18BF704708BF1CF0400F93
:105A20000AD04FF000004FF0000170471CF0400F0B
:105A300018BF4FF0004070471CF0100F08D020F046
:105A4000704300F07F4242EAD3014FEA437070474F
:105A500000F0604021F07F4242EA000201F07F4006
:105A600040EA727070474FF0FF0C4CF4E06C1CEA97
:105A700011531CBF9CEA030C9445C2BFDA4201EBF0
:105A800002517047002B0DD0BCF1000F0FD0002A3F
:105A900001F00041A4BF41F0E04141F07F614FF0CF
:105AA0000000704701F000414FF00000704750EADD
:105AB00001334FF09B0C18BF4CF0806C7FF43CAA74
:105AC00070471CF4801F11D01CF4E02F03D06FEA44
:105AD000CC31490070474FF04050EFF3008222F084
